:100000000C9434000C9446000C9446000C9446006A
:100010000C9446000C9446000C9446000C94460048
:100020000C9446000C9446000C9446000C94460038
:100030000C9446000C9446000C9446000C94460028
:100040000C9446000C9446000C9446000C94460018
:100050000C9446000C9446000C9446000C94460008
:100060000C9446000C94460011241FBECFEFD8E03C
:10007000DEBFCDBF21E0A0E0B1E001C01D92A23003
:10008000B207E1F70E948B000C94BE000C940000B4
:100090008AB180668AB91BB8089517BC84B5806898
:1000A00084BD84B5836084BD0895ECE7F0E01082E0
:1000B00080818064808380818F7D8083EAE7F0E0A7
:1000C0008081876080838081806880830895EAE7EB
:1000D000F0E0808180648083808186FF17C05D9A14
:1000E0002FEF87EA91E6215080409040E1F700C071
:1000F00000005D982FEF87EA91E621508040904004
:10010000E1F700C00000808186FDE9CF8091780092
:100110009091790008950E944D000E9448000E942D
:10012000550010920101109200011FEFCFEFD3E0B4
:100130000E9467009C01129FC001139F900D112423
:10014000BE010E94AA00609300017093010167BD87
:100150005E9AEECFAA1BBB1B51E107C0AA1FBB1FB3
:10016000A617B70710F0A61BB70B881F991F5A9543
:10017000A9F780959095BC01CD010895F894FFCF23
:00000001FF
